:020000040800F2
:1000000018100020490300083D0300083D030008C4
:100010003D0300083D0300083D03000880B400AF25
:10002000BD4680BC704700BF80B500AF4FF00000F8
:1000300000F07EF880BD00BF80B500AF4FF001003A
:1000400000F076F880BD00BF80B400AFBD4680BC34
:10005000704700BF80B400AFBD4680BC704700BF92
:1000600080B400AFBD4680BC704700BF80B582B091
:1000700000AF786041F22003C2F2000340F2A9020F
:10008000C0F600021A6041F22003C2F200031B68AE
:10009000984707F10807BD4680BD00BF80B500AF97
:1000A000FFF7CAFF80BD00BF80B500AFFFF7BCFF00
:1000B00041F22003C2F2000340F2C502C0F6000282
:1000C0001A6080BD80B500AF44F24020C0F20F003E
:1000D00000F010F841F22003C2F2000340F29D024A
:1000E000C0F600021A6041F22003C2F200031B684E
:1000F000984780BD80B483B000AF786003E07B6830
:1001000003F1FF337B607B68002BF8D107F10C070C
:10011000BD4680BC704700BF80B400AF40F6080306
:10012000C4F201031B68DBB21846BD4680BC7047B1
:1001300080B483B000AF78607B68012B0CD140F6AF
:100140000C03C4F2010340F60C02C4F2010212686F
:1001500042F400521A600EE07B68002B0BD140F68F
:100160000C03C4F2010340F60C02C4F2010212684F
:1001700022F400521A6007F10C07BD4680BC70479C
:1001800080B400AF41F21803C4F2020341F2180236
:10019000C4F20202126842F004021A604FF40063D3
:1001A000C4F201034FF40062C4F20102126822F4A7
:1001B00070021A604FF40063C4F201034FF400624E
:1001C000C4F2010212681A6040F60403C4F201038B
:1001D00040F60402C4F20102126822F470021A60AE
:1001E00040F60403C4F2010340F60402C4F2010223
:1001F000126842F022321A60BD4680BC704700BFD0
:1002000080B500AF00F07AF8FFF708FF41F22C0349
:10021000C2F2000340F20932C0F600021A6041F255
:100220001C03C2F2000340F24902C0F600021A6049
:1002300041F22003C2F2000340F29D02C0F6000228
:100240001A6041F22803C2F2000340F2C122C0F654
:1002500000021A6080BD00BF80B500AFFFF7D0FF7D
:1002600041F22C03C2F200031B68984741F22803B5
:10027000C2F200031B68984741F22003C2F2000358
:100280001B68984741F21C03C2F200031B689847A1
:1002900044F24020C0F20F00FFF72CFFE0E700BF60
:1002A00080B483B000AF786040F21003C2F2000364
:1002B0007A681A6007F10C07BD4680BC704700BF22
:1002C00080B500AF41F22603C2F200034FF00002F6
:1002D0001A7040F21003C2F200031A6840F20403DD
:1002E000C2F200031B689A4207DD40F21003C2F21B
:1002F00000031B681846FFF7B9FE80BD80B500AF4C
:10030000FFF73EFF80BD00BF80B500AFFFF704FFE1
:10031000024640F21403C2F200031A6040F21403D2
:10032000C2F200031B681846FFF7BAFF80BD00BF8A
:1003300080B400AFBD4680BC704700BF80B500AF41
:1003400000F002F880BD00BF80B586B000AF40F27B
:100350000C02C2F2000240F20003C2F20003D31A00
:10036000BB6040F2FC33C0F600037B6140F2000347
:10037000C2F200033B614FF00003FB600FE07B69BA
:100380001A783B691A703B6903F101033B617B6991
:1003900003F101037B61FB6803F10103FB60FA6871
:1003A000BB689A42EBD340F21802C2F2000240F25C
:1003B0000C03C2F20003D31A7B6040F20C03C2F2BA
:1003C00000031B683B614FF00003FB600BE03B69DF
:1003D0004FF000021A703B6903F101033B61FB68B7
:1003E00003F10103FB60FA687B689A42EFD3FFF7E1
:0C03F00033FF07F11807BD4680BD00BFB9
:0C03FC003C000000140000006400000041
:0400000508000000EF
:00000001FF
